:1001020010083F065B4F666D7D077F6F777C395E17
:02011200797101
:10011500AE071FEE600B007E027DC7DDFEDEFC80B4
:01012500EFEA
:0101260022B6
:10008F00E4FCEC14B4080050549000A675F003A4DF
:10009F00C58325F0C583730200BE0200C20200C6ED
:1000AF000200CA0200CE0200D60200DE0200E6C243
:1000BF00A4800EC2A48012C2A48016C2A4801AD239
:1000CF00A4C2A3C2A28016D2A4C2A3D2A2800ED26F
:1000DF00A4D2A3C2A28006D2A4D2A3D2A274082C07
:1000EF00F8E6F5807F01120115E4F5800CEC640948
:0200FF007090FF
:0101010022DB
:0501270012008F80FBB7
:03000000020003F8
:0C000300787FE4F6D8FD75811702004AF2
:10000F00020127E493A3F8E493A34003F68001F2DF
:10001F0008DFF48029E493A3F85407240CC8C333F2
:10002F00C4540F4420C8834004F456800146F6DFC1
:10003F00E4800B0102040810204080900102E47E4E
:10004F00019360BCA3FF543F30E509541FFEE493B6
:10005F00A360010ECF54C025E060A840B8E493A37D
:10006F00FAE493A3F8E493A3C8C582C8CAC583CAA8
:10007F00F0A3C8C582C8CAC583CADFE9DEE780BE60
:0101140000EA
:00000001FF
