:05001E0012000380FE4A
:03002300020026B2
:10002600C0E0C0F0C083C082C0D075D000C000C0A0
:1000360001C002C003C004C005C006C00730980C4A
:10004600E599F4F5A0AF9912008EC298D007D006B4
:10005600D005D004D003D002D001D000D0D0D082B9
:07006600D083D0F0D0E0329E
:06006D00AE071FEE600E5D
:0C0073007508027509EFD509FDD508FAE3
:03007F0080EC22F0
:1000030043878075985053890F438920758BF47506
:0B0013008DF4C2ABD28ED2AFD2AC2273
:08008E008F993099FDC29922FF
:0300000002008279
:0C008200787FE4F6D8FD75810902001EAD
:00000001FF
