:100055001200038F0BE50BB40102B2A1E50BB4024C
:1000650002B2A2E50BB40302B2A3E50BB404E1B2FC
:03007500A480DD87
:100078005389F0438901758A18758CFCC28DD28C1E
:07008800D2A9D2AFC2B922D8
:10000300E4F50820B1107F1412008F30B1FD7F1486
:1000130012008F75080120B0107F1412008F30B0CA
:10002300FD7F1412008F75080220B2107F14120096
:100033008F30B2FD7F1412008F75080320B3107F39
:100043001412008F30B3FD7F1412008F750804AFB4
:0100530008A4
:010054002289
:06008F00AE071FEE600E3B
:0C009500750902750AEFD50AFDD509FABD
:0300A10080EC22CE
:030000000200A457
:0C00A400787FE4F6D8FD75810B02005552
:00000001FF
