:1002F4005772697465204F4B210020202020202054
:100304002020200052656164204F4B2100202020D2
:0603140020202020200043
:100003001203D0750C05AB23AA227D017F011203D5
:100013009D12016B8F24E524B401150523E523709C
:10002300020522750C05FBAA227D017F0112039DA7
:10003300E524B40216E523152370021522750C0579
:10004300AB23AA227D017F0112039DE52464037083
:100053003AFCAD23FF12031A7F051203E4E522FDE8
:100063007C007F0112031A7F051203E47BFF7A02EF
:1000730079F47D017F0212033E7FE81203E47BFFE4
:100083007A0279FE7D017F0212033EE52464047047
:1000930080FF12029B7522008F237F0112029BEFC8
:1000A300FEEE4222750C05AB23AA227D017F0112CD
:1000B300039D7BFF7A0379087D017F0212033E7F54
:1000C300E81203E47BFF7A0379117D017F021203B7
:0400D3003E020014D5
:1003E400AE071FEE600A7E027DC7DDFEDEFC80F0F4
:0103F40022E6
:10016B00E4F50820B1107F141203E430B1FD7F14C5
:10017B001203E475080120B0107F141203E430B0B1
:10018B00FD7F141203E475080220B2107F141203D2
:10019B00E430B2FD7F141203E475080320B3107F23
:1001AB00141203E430B3FD7F141203E4750804AF9B
:0101BB00083B
:0101BC002220
:0603F500C2A58F80D2A713
:0803FB007F027EEFDEFEDFFC55
:0104030022D6
:0A041C00C2A61203F5C2A70203FBFB
:10036100CFCDCFCECCCE1201167C007D0A12011664
:04037100ED2430FF48
:0A037500D2A61203F5C2A70203FB93
:1003BA00AE07BE0104ED148006BE0209ED243F44D7
:0603CA0080FF12041C225A
:1003D0007F3812041C7F0C12041C7F0612041C7F41
:0403E0000102041CF6
:0A042600AC031203BAAF0402037521
:06033E008B088A09890A00
:100344001203BAE4FDAB08AA09A90A8D82758300D9
:0C0354001200D7FF60061203750D80E94F
:01036000227A
:0C0268007F0AEA24FFFDE434FFFC7E0066
:080274008E0D8F0E8C0F8D1012
:10027C007F017E00E4FBEBC39510E50F6480F874FE
:0E028C008098500AAC0DAD0E1201040B80E8F4
:01029A002241
:04039D008A0A8B0B32
:1003A1001203BAAA0CEAD39400400D120268AC0AF7
:0803B100AD0B1203611A80ED8F
:0103B9002221
:1001BD001203BAC3EA64809480400B7F2B1203753F
:1001CD008A168B17800E7F2D120375C3E49BF517CE
:1001DD00E49AF516AA15EAD39400400D120268AC04
:0901ED0016AD171203611A80ED32
:0101F60022E6
:0401F7008A1A8B1BBA
:1001FB001203BAAA1CEAD3940040297F1012026A98
:10020B00AC1AAD1BCFCDCFCECCCE120116EF540F07
:10021B00FEC3940AEE5004243080022437FF1203ED
:04022B00751A80D1EF
:01022F0022AC
:040230008A1F8B2076
:100234001203BAAA21EAD394004028EA24FFFDE479
:1002440034FFFC7F027E00120274AC1FAD20CFCDC0
:10025400CFCECCCE120116EF54012430FF12037519
:030264001A80D22B
:010267002274
:09043A00D2A0D2A1C2A0C2A122ED
:09044300C2A0D2A1D2A0C2A122E4
:0202CB00AD077D
:1002CD00E4FB74807E00A803088006CEA2E713CE5F
:1002DD0013D8F8FFEDF582EF558224FF92A0D2A13D
:0602ED00C2A10BBB08DCFE
:0102F30022E8
:10037F00E4FFD2A0FED2A130A00D7480A8060880A1
:0D038F0002C313D8FC4207C2A10EBE08E84D
:01039C00223E
:0A043000EF24FF92A0D2A1C2A12286
:0B040400D2A0D2A1A2A0E433FFC2A14D
:01040F0022CA
:10031A008F088C098D0A12043A7FA01202CB1204AC
:10032A0004AF081202CB120404AF0A1202CB120461
:04033A000402044372
:02029B008F08CA
:10029D0012043A7FA01202CB120404AF081202CB53
:1002AD0012040412043A7FA11202CB1204041203A9
:0D02BD007F8F097F01120430120443AF0946
:0102CA002211
:03000000020410E7
:0C041000787FE4F6D8FD7581240200031B
:1000D700BB010CE58229F582E5833AF583E02250DE
:1000E70006E92582F8E622BBFE06E92582F8E22228
:0D00F700E58229F582E5833AF583E4932242
:10010400EF8DF0A4A8F0CF8CF0A428CE8DF0A42E0F
:02011400FE22C9
:10011600BC000BBE0029EF8DF084FFADF022E4CCCD
:10012600F875F008EF2FFFEE33FEEC33FCEE9DEC96
:10013600984005FCEE9DFE0FD5F0E9E4CEFD22EDDC
:10014600F8F5F0EE8420D21CFEADF075F008EF2F26
:10015600FFED33FD4007985006D5F0F222C398FD17
:050166000FD5F0EA22B4
:00000001FF
