:10000300C2B6C2B5E4FD7F8012006E7D017F40124F
:10001300006E7D027F2012006E7D037F1012006E42
:100023007D047F0812006E7D057F0412006E7D063D
:0E0033007F0212006E7D077F0112006E80C6F4
:06008C00AE071FEE600E3E
:0C0092007508027509EFD509FDD508FAC4
:03009E0080EC22D1
:02004100AD0709
:10004300E4FB74807E00A803088006CEA2E713CEEB
:1000530013D8F8FFEDF582EF558224FF92B4D2B6A0
:0A006300C2B60BBB08DCD2B5C2B573
:01006D002270
:10006E00AC05120041AF047480A807088002C313C8
:0E007E00D8FCF4F5807F0112008C7580FF2203
:030000000200A15A
:0C00A100787FE4F6D8FD758109020003A9
:00000001FF
