:1000B40075A0FE1200EB1200628F0BE50B60F7B423
:1000C40001F4050AE50AC3940240EBE4F50A80E66C
:03000B0002000EE2
:0B000E00C0E0C0D075D000C000C007EB
:10001900758A66758CFC0509E50970020508C394A3
:10002900F4E50894014029750800750900E50A708E
:100039000DAFA07801EF08800123D8FDF5A0E50AEE
:10004900B4010DAFA07801EF08800103D8FDF5A038
:09005900D007D000D0D0D0E03275
:1000D4005389F0438901C28DD28C758CFC758A17C3
:0700E400D2A9D2AFC2B9227C
:1000EB005389F0438901758A66758CFCC28DD28C5D
:0700FB00D2A9D2AFC2B92265
:10006200E4F50C20B1107F1412010230B1FD7F14AF
:10007200120102750C0120B0107F1412010230B07F
:10008200FD7F14120102750C0220B2107F141201BE
:100092000230B2FD7F14120102750C0320B3107FEF
:1000A2001412010230B3FD7F14120102750C04AF69
:0100B2000C41
:0100B300222A
:06010200AE071FEE600EC7
:0C010800750D02750EEFD50EFDD50DFA39
:0301140080EC225A
:03000000020117E3
:0C011700787FE4F6D8FD75810E0200B47C
:00000001FF
