:10000E0012038B1203F58F29E529B4010CE5277035
:10001E00047F0180027F008F27E529B40207E4F5F3
:10002E0025F524F526E5296403702DE525FD7C00D4
:10003E00E4FF1203137F051203BAE524FD7C007F53
:10004E00011203137F051203BAE526FD7C007F0221
:10005E001203137F051203BAE529B40415E4FF1247
:10006E0002938F257F011202938F247F0212029337
:10007E008F26E52575F00A84FD7F08120003E5251D
:10008E0075F00A84ADF07F071200037D0B7F061218
:10009E000003E52475F00A84FD7F05120003E524B4
:1000AE0075F00A84ADF07F041200037D0B7F0312FE
:1000BE000003E52675F00A84FD7F02120003E52693
:0E00CE0075F00A84ADF07F01120003020011EC
:1002EC00E52760220526E526C394644019E4F5262B
:1002FC000524E524943C400EE4F5240525E52594DD
:07030C003C4003E4F525224B
:03000B000200DC14
:1000DC00C0E0C0F0C083C082C0D075D000C000C0EA
:0D00EC0001C002C003C004C005C006C0076B
:1000F900758A66758CFC051FE51F7002051EC39481
:1001090014E51E94004009751E00751F0012025A5D
:100119000521E52170020520C39402E520940040E1
:10012900097520007521001203720523E523700269
:100139000522C3940AE5229400400975220075231B
:04014900001202ECB2
:10014D00D007D006D005D004D003D002D001D00006
:0B015D00D0D0D082D083D0F0D0E032B0
:0603BA00AE071FEE600E0D
:0C03C000752D02752EEFD52EFDD52DFAFF
:0303CC0080EC22A0
:0503F500AF2CE4F52C23
:0103FA0022E0
:1003A400E4FF20B1010F20B0027F0220B2027F03DC
:0503B40020B3027F04EC
:0103B9002221
:10025A00852A2B1203A48F2AE52BB40107E52A70FD
:10026A0003752C01E52BB40207E52A7003752C02ED
:10027A00E52BB40307E52A7003752C03E52BB404B8
:08028A0007E52A7003752C043E
:010292002249
:100355000915000A0A0A0A0A0A0A0A0C093F065B75
:0C0365004F666D7D077F6F0040010801AE
:0700030074152FF8A6052279
:1001F400E4F580EF14B40800505490020C75F00339
:10020400A4C58325F0C583730202240202280202D6
:100214002C02023002023402023C02024402024C6A
:10022400C2A4800EC2A48012C2A48016C2A4801AE2
:10023400D2A4C2A3C2A28016D2A4C2A3D2A2800E08
:10024400D2A4D2A3C2A28006D2A4D2A3D2A27409F9
:060254002DF8E6F5802202
:1003720074152508F8E6FDAF081201F40508E50832
:08038200C39409400375080152
:01038A002250
:100313008F2D8C2E8D2F1203E57FA01202C31203A3
:10032300CFAF2D1202C31203CFAF2F1202C312039A
:04033300CF0203EE04
:020293008F2DAD
:100295001203E57FA01202C31203CFAF2D1202C3D2
:1002A5001203CF1203E57FA11202C31203CF12037B
:0D02B500378F2E7F011203DB1203EEAF2EF8
:0102C2002219
:0903E500D2A0D2A1C2A0C2A12243
:0703EE00C2A0D2A1D2A0229F
:0202C300AD0785
:1002C500E4FB74807E00A803088006CEA2E713CE67
:1002D50013D8F8FFEDF582EF558224FF92A0D2A145
:0602E500C2A10BBB08DC06
:0102EB0022F0
:10033700E4FFD2A0FED2A130A00D7480A8060880E9
:0D03470002C313D8FC4207C2A10EBE08E895
:010354002286
:0A03DB00EF24FF92A0D2A1C2A122DC
:0B03CF00D2A0D2A1A2A0E433FFC2A183
:0103DA002200
:10038B005389F0438901758A66758CFCC28DD28CBA
:09039B00D28DD2A9D2AFC2B92261
:0300000002016892
:0C016800787FE4F6D8FD75812F0201AF0E
:1001740002000EE493A3F8E493A34003F68001F293
:1001840008DFF48029E493A3F85407240CC8C3338C
:10019400C4540F4420C8834004F456800146F6DF5B
:1001A400E4800B0102040810204080900355E47E93
:1001B400019360BCA3FF543F30E509541FFEE49350
:1001C400A360010ECF54C025E060A840B8E493A317
:1001D400FAE493A3F8E493A3C8C582C8CAC583CA42
:1001E400F0A3C8C582C8CAC583CADFE9DEE780BEFA
:01037100008B
:00000001FF
