:10097100543A0054483A00544C3A004F563A480011
:0A0981004F563A4C002020202000C1
:10046D00120A337FE8120A13E4FF1207F58F0F7F8C
:10047D00011207F58F0AD3E50F648094FD5016C362
:10048D00E50A64809449400DD3E50A6480F8E50FD0
:10049D006480985006750F19750A0F1209FF12091D
:1004AD00A47BFF7A0979717D017F0112089E7BFF84
:1004BD007A0979747D017F0212089E7BFF7A097992
:1004CD00787D097F0212089EE50FFB3395E0FA75E2
:1004DD0019037D047F021206DEE50AFB3395E0FA6F
:1004ED007519037D0C7F021206DE120A7F8F101222
:1004FD000A331208258F0E8E0D8D0C8C0BE4FFFE2A
:10050D00FDFCAB0EAA0DA90CA80B1201B4501E7B5D
:10051D002D7D037F01120A62AF0EAE0DAD0CAC0B3B
:10052D0012022D8F148E138D128C1180157B2B7D45
:10053D00037F01120A62850E14850D13850C128539
:10054D000B11AF14AE13AD12AC1112027CAB07AA96
:10055D00067519037D047F011209387B2E7D077FF7
:10056D0001120A627F007E407D1C7C46AB14AA13EB
:10057D00A912A81112000E12027CE47B107A27F941
:10058D00F81203CD7519027D087F01120938E510A7
:10059D007003020636B4010E050FD3E50F64809487
:1005AD00FD4003750F7DE510B40211150FD3E50A5B
:1005BD006480F8E50F6480985002050FE510B403D0
:1005CD0011050AC3E50F6480F8E50A6480984002BE
:1005DD00150AE510B4040E150AC3E50A64809449A2
:1005ED005003750AC9E50FFB3395E0FA7519037DC4
:1005FD00047F021206DEE50AFB3395E0FA75190356
:10060D007D0C7F021206DEE50FFD3395E0FCE4FF65
:10061D0012087A7F05120A13E50AFD3395E0FC7F77
:10062D000112087A7F05120A13AC0FEC120248ABC7
:10063D000EAA0DA90CA80B1201B4600A40087BFF8D
:10064D007A09797C8019AC0AEC120248AB0EAA0D1E
:10065D00A90CA80B1201B450107BFF7A0979817D8A
:10066D000D7F0112089E0204F77BFF7A0979867DC2
:09067D000D7F0112089E0204F732
:03000B0002068664
:10068600C0E0C0F0C083C082C0D075D000C000C03A
:0D06960001C002C003C004C005C006C007BB
:1006A300758A66758CFC0509E50970020508C39413
:1006B30014E50894004009750800750900120751F4
:1006C300D007D006D005D004D003D002D001D0008B
:0B06D300D0D0D082D083D0F0D0E03235
:1008C100C2AFD2B7C2B77FE3DFFED2B77F1DDFFE73
:0D08D100A2B7E433FE7FE3DFFED2AFAF0637
:0108DE0022F7
:1009BD00C2AFC2B77E04DEFEEF24FF92B77E16DE15
:0509CD00FED2B7D2AF1D
:0109D2002202
:10095500C2AFC2B77F01DFFED2B77F01DFFEA2B70C
:0B096500E433FE7F16DFFED2AFAF06CA
:010970002264
:02098B00AD07B6
:10098D00E4FC7401A804088002C333D8FC5DFF1297
:06099D0009BD0CBC08ECD2
:0109A3002231
:10091B00E4FDFC120955EF600D7401A80408800278
:0C092B00C333D8FC42050CBC08E9AF0542
:01093700229D
:060A2400C2A58F80D2A7DD
:080A2A007F027EEFDEFEDFFC1F
:010A320022A1
:0A0A5800C2A6120A24C2A7020A2A4D
:1008DF00CFCDCFCECCCE12033C7C007D0A12033C91
:0408EF00ED2430FFC5
:0A08F300D2A6120A24C2A7020A2AA4
:1009D300AE07BE0104ED148006BE0209ED243F44B8
:0609E30080FF120A5822F9
:1009FF007F38120A587F0C120A587F06120A587F46
:040A0F0001020A587E
:0A0A6200AC031209D3AF040208F33D
:06089E008B158A16891774
:1008A4001209D3E4FDAB15AA16A9178D827583002E
:0C08B4001202FDFF60061208F30D80E93F
:0108C0002215
:0C07C2007F0AEA24FFFDE434FFFC7E0007
:0807CE008E1C8F1D8C1E8D1F77
:1007D6007F017E00E4FBEBC3951FE51E6480F87481
:0E07E6008098500AAC1CAD1D12032A0B80E84F
:0107F40022E2
:040938008A178B1877
:10093C001209D3AA19EAD39400400D1207C2AC17BE
:08094C00AD181208DF1A80ED5E
:010954002280
:1006DE001209D3C3EA64809480400B7F2B1208F377
:1006EE008A1A8B1B800E7F2D1208F3C3E49BF51B19
:1006FE00E49AF51AAA19EAD39400400D1207C2AC77
:09070E001AAD1B1208DF1A80ED80
:0107170022BF
:040718008A228B2383
:10071C001209D3AA24EAD3940040297F101207C4EB
:10072C00AC22AD23CFCDCFCECCCE12033CEF540FA9
:10073C00FEC3940AEE5004243080022437FF1208C2
:04074C00F31A80D14B
:010750002286
:04078A008A278B2807
:10078E001209D3AA29EAD394004028EA24FFFDE4F3
:10079E0034FFFC7F027E001207CEAC27AD28CFCDF2
:1007AE00CFCECCCE12033CEF54012430FF1208F30F
:0307BE001A80D2CC
:0107C1002215
:0D0A33001208C17FCC12098B7F4402098B91
:100825001208C17FCC12098B7FBE12098B12091BDE
:100835008F1512091BEFFEE515FFFDAC06EC120244
:0B08450043E4FBFA79807841120117B0
:010850002285
:100A1300AE071FEE600A7E027DC7DDFEDEFC80F0BE
:010A230022B0
:10087A008F158C168D17120A767FA0120851120A4C
:10088A0040AF15120851120A40AF17120851120A46
:04089A004002000315
:0207F5008F155E
:1007F700120A767FA0120851120A40AF151208514B
:10080700120A40120A767FA1120851120A401208F2
:0D081700FD8F167F01120A6C120003AF1650
:0108240022B1
:090A7600D2A0D2A1C2A0C2A122AB
:07000300C2A0D2A1D2A0228D
:02085100AD07F1
:10085300E4FB74807E00A803088006CEA2E713CED3
:1008630013D8F8FFEDF582EF558224FF92A0D2A1B1
:06087300C2A10BBB08DC72
:01087900225C
:1008FD00E4FFD2A0FED2A130A00D7480A80608801E
:0D090D0002C313D8FC4207C2A10EBE08E8C9
:01091A0022BA
:0A0A6C00EF24FF92A0D2A1C2A12244
:0B0A4000D2A0D2A1A2A0E433FFC2A10B
:010A4B002288
:050A7F00AF2CE4F52C92
:010A8400224F
:1009E900E4FF20B1010F20B0027F0220B2027F0391
:0509F90020B3027F04A1
:0109FE0022D6
:10075100852A2B1209E98F2AE52BB40107E52A70B6
:1007610003752C01E52BB40207E52A7003752C02F1
:10077100E52BB40307E52A7003752C03E52BB404BC
:0807810007E52A7003752C0442
:01078900224D
:1009A4005389F0438901758A66758CFCC28DD28C9B
:0909B400D28DD2A9D2AFC2B92242
:10000E00EC4D6011E8497017ED33EC3304600DE4EC
:10001E00FCFFFEFD22E933E8330470F80202E81219
:10002E0002B358046009E4CC24815006285009021A
:10003E0002F22840030202EFC0E0EB4A7044B9809E
:10004E0006D0E0FB0202DEEF4E701CBD8008EBFF17
:10005E00EAFEE9FD80EBE98DF0A4FEE5F00200F783
:10006E00E9CDF9EAFEEBFFEF89F0A4FCE5F0CE89CD
:10007E00F0A42EFFE435F0CD89F0A42DFEE435F08A
:10008E008067EF4E7005BD80D780C3EF8BF0A4ACB8
:10009E00F0EE8BF0A42CFCE435F0F8EF8AF0A42CF3
:1000AE00E5F038FCE433CB8DF0A42CFCE5F03BF806
:1000BE00EE8AF0A42CFCE5F038F8E433CF89F0A4F6
:1000CE002CFCE5F038CF3400CE89F0A42FFFE5F0FC
:1000DE003EFEE433C98DF0A42EFEE5F039CD8AF054
:1000EE00A42FFFE5F03EFEE43DFD33D0E0FB5007CC
:1000FE000BBB000F0202F2EC2CFCEF33FFEE33FED3
:06010E00ED33FD0202CA00
:100114000202F2EC5D046005E8590470030202E88F
:100124001202B3580460F6EC4860F2EC7004FDFE71
:10013400FF22C860DB2481C85009C39860025006BE
:100144000202EF9850CAF582E9294B4A7005AB8246
:100154000202DE75F0007C1A7880C3EF9BEE9AED04
:1001640099400DC3EF9BFFEE9AFEED99FDE842F036
:10017400DC23ACF0D0E0FFD0E0FED0E0FDAB822089
:10018400E7101BEB60BAEC2CFCEF33FFEE33FEED13
:1001940033FD0202CAE803F830E705C0F075F00049
:1001A400EF2FFFEE33FEED33FD40B830E7C280AAF7
:1001B40074F8CC6480CCC86480C8F58204604FC3F2
:1001C400EB9FF5F0EA9E42F0E99D42F0E89C45F091
:1001D400603C501DE5825FFFE582D313CB5BCBF41B
:1001E4002B5582FB50280ABA002409B90020088044
:1001F4001DE5825BFBE582D313CF5FCFF4C3132FDE
:100204005582FF50090EBE00050DBD00010CC3EB65
:100214009FF5F0EA9E42F0E99D42F0E89C45F060CB
:0902240007CC4820E701B3EC22ED
:10022D00ED33EC33600A047003BD8004ECB2E7FCDF
:01023D00229E
:10023E0075F020800E75F010800575F0087D007E3B
:10024E00007F003392D530D50312045FEC3340109B
:10025E00EF33FFEE33FEED33FDEC33FCD5F0ED2244
:0E026E00E5F0247EA2D513CC92E7CDCEFF2280
:10027C00EDD2E7CD33EC3392D524814006E4FFFE7A
:10028C00FDFC22FCE4CFCECDCC24E0501174FF80D9
:10029C00EDC3CC13CCCD13CDCE13CECF13CF047076
:0702AC00F030D5DE02045F13
:1002B300E9D2E7C933E833F892D5EDD2E7CD33EC91
:0702C30033FC5002B2D5220A
:1002CA00EC30E7100FBF000C0EBE00080DBD000495
:1002DA000BEB6014A2D5EB13FCED92E7FD2274FF41
:1002EA00FCFDFEFF22E480F8A2D574FF13FC7D809A
:0302FA00E480EFAE
:03000000020A4CA5
:0C0A4C00787FE4F6D8FD75812C02046D63
:1002FD00BB010CE58229F582E5833AF583E02250B6
:10030D0006E92582F8E622BBFE06E92582F8E222FF
:0D031D00E58229F582E5833AF583E4932219
:10032A00EF8DF0A4A8F0CF8CF0A428CE8DF0A42EE7
:02033A00FE22A1
:10033C00BC000BBE0029EF8DF084FFADF022E4CCA5
:10034C00F875F008EF2FFFEE33FEEC33FCEE9DEC6E
:10035C00984005FCEE9DFE0FD5F0E9E4CEFD22EDB4
:10036C00F8F5F0EE8420D21CFEADF075F008EF2FFE
:10037C00FFED33FD4007985006D5F0F222C398FDEF
:05038C000FD5F0EA228C
:1003910075F008758200EF2FFFEE33FECD33CDCC23
:1003A10033CCC58233C5829BED9AEC99E5829840A6
:1003B1000CF582EE9BFEED9AFDEC99FC0FD5F0D683
:1003C100E4CEFBE4CDFAE4CCF9A88222B800C1B9AD
:1003D1000059BA002DEC8BF084CFCECDFCE5F0CBEB
:1003E100F97818EF2FFFEE33FEED33FDEC33FCEB24
:1003F10033FB10D703994004EB99FB0FD8E5E4F9DF
:10040100FA227818EF2FFFEE33FEED33FDEC33FCCB
:10041100C933C910D7059BE99A4007EC9BFCE99ABF
:10042100F90FD8E0E4C9FAE4CCFB2275F010EF2F04
:10043100FFEE33FEED33FDCC33CCC833C810D70704
:100441009BEC9AE899400AED9BFDEC9AFCE899F83F
:0E0451000FD5F0DAE4CDFBE4CCFAE4C8F922D2
:0E045F00C3E49FFFE49EFEE49DFDE49CFC22AE
:00000001FF
