:040550002D003A0040
:1000BA0012050A12054B1200031201EBE518FB7A2E
:1000CA0000750C027D017F011204C27BFF7A05795B
:1000DA00507D037F01120481E519FB7A00750C0239
:1000EA007D047F011204C27BFF7A0579507D067F69
:1000FA0001120481E51AFB7A00750C027D077F0163
:10010A001204C2E51BFB7A00750C027D017F021204
:10011A0004C27BFF7A0579527D037F02120481E5CE
:10012A001CFB7A00750C027D047F021204C27BFF5D
:10013A007A0579527D067F02120481E51DFB7A0059
:0D014A00750C027D077F021204C20200C383
:06051E00C2A58F80D2A7E8
:080524007F027EEFDEFEDFFC2A
:01052C0022AC
:0A052D00C2A612051EC2A702052493
:1004A400CFCDCFCECCCE1201967C007D0A12019620
:0404B400ED2430FF04
:0A04B800D2A612051EC2A7020524F9
:1004DF00AE07BE0104ED148006BE0209ED243F44B1
:0604EF0080FF12052D2222
:10050A007F3812052D7F0C12052D7F0612052D7FCF
:04051A000102052DA8
:0A053700AC031204DFAF040204B8A5
:060481008B088A09890ABC
:100487001204DFE4FDAB08AA09A90A8D827583006F
:0C049700120157FF60061204B80D80E946
:0104A3002236
:0C044E007F0AEA24FFFDE434FFFC7E007E
:08045A008E0D8F0E8C0F8D102A
:100462007F017E00E4FBEBC39510E50F6480F87416
:0E0472008098500AAC0DAD0E1201840B80E88C
:010480002259
:0404C2008A0A8B0B0C
:1004C6001204DFAA0CEAD39400400D12044EAC0AC3
:0804D600AD0B1204A41A80ED25
:0104DE0022FB
:1003A3001204DFC3EA64809480400B7F2B1204B8ED
:1003B3008A168B17800E7F2D1204B8C3E49BF517A2
:1003C300E49AF516AA15EAD39400400D12044EAC34
:0903D30016AD171204A41A80ED06
:0103DC0022FE
:0403DD008A218B22C4
:1003E1001204DFAA23EAD3940040297F101204509B
:1003F100AC21AD22CFCDCFCECCCE120196EF540F92
:10040100FEC3940AEE5004243080022437FF120404
:04041100B81A80D1C4
:0104150022C4
:040416008A268B2780
:10041A001204DFAA28EAD394004028EA24FFFDE464
:10042A0034FFFC7F027E0012045AAC26AD27CFCDE2
:10043A00CFCECCCE120196EF54012430FF1204B86D
:03044A001A80D243
:01044D00228C
:090541000718160A0C1005370317
:05054B00C2B5C2B6229A
:0303040025F0FDE4
:02030700A90744
:10030900D2B5E4FB74017E00A803088005C333CE8F
:1003190033CED8F9FFE9F582EF558224FF92B4D2A2
:10032900B6C2B60BBB08DDE4FB74017E00A8030866
:100339008005C333CE33CED8F9FFEDF582EF558270
:0E03490024FF92B4D2B6C2B60BBB08DDC2B51B
:010357002283
:02035800A907F3
:10035A00E4FDD2B5FB74017E00A803088005C3330F
:10036A00CE33CED8F9FFE9F582EF558224FF92B455
:10037A00C2B6D2B60BBB08DDE4FBD2B6C2B630B405
:10038A000D7401A803088002C333D8FC42050BBBD5
:08039A0008E8C2B5C2B4AF05CA
:0103A2002238
:10000300E4FD7F8E120307E51E75F00A84C454F0E5
:10001300FFE51E75F00A84EF7F8A120304E51D7560
:10002300F00A84C454F0FFE51D75F00A84EF7F8065
:10003300120304E51C75F00A84C454F0FFE51C7533
:10004300F00A84EF25F0FD7F82120307E51B75F0AC
:100053000A84C454F0FFE51B75F00A84EF25F0FD14
:100063007F84120307E51A75F00A84C454F0FFE590
:100073001A75F00A84EF25F0FD7F86120307E51950
:1000830075F00A84C454F0FFE51975F00A84EF256E
:10009300F0FD7F88120307E51875F00A84C454F055
:1000A300FFE51875F00A84EF25F0FD7F8C12030736
:0700B3007D807F8E02030730
:1001EB007F8D120358EFC4540F75F00AA4FEEF5421
:1001FB000F2EF5187F89120358EFC4540F75F00AB0
:10020B00A4FEEF540F2EF5197F87120358EFC45439
:10021B000F75F00AA4FEEF540F2EF51A7F8512030B
:10022B0058EFC4540F75F00AA4FEEF540F2EF51BB4
:10023B007F83120358EFC4540F75F00AA4FEEF54DA
:10024B000F2EF51C7F81120358EFC4540F75F00A63
:10025B00A4FEEF540F2EF51D7F8B120358EFC454E1
:0C026B000F75F00AA4FEEF540F2EF51ED4
:010277002264
:0604F500AE071FEE600ED1
:0C04FB00752902752AEFD52AFDD529FAD3
:0305070080EC2263
:0300000002027881
:0C027800787FE4F6D8FD75812A0202BFF1
:10015700BB010CE58229F582E5833AF583E022505D
:1001670006E92582F8E622BBFE06E92582F8E222A7
:0D017700E58229F582E5833AF583E49322C1
:10018400EF8DF0A4A8F0CF8CF0A428CE8DF0A42E8F
:02019400FE2249
:10019600BC000BBE0029EF8DF084FFADF022E4CC4D
:1001A600F875F008EF2FFFEE33FEEC33FCEE9DEC16
:1001B600984005FCEE9DFE0FD5F0E9E4CEFD22ED5C
:1001C600F8F5F0EE8420D21CFEADF075F008EF2FA6
:1001D600FFED33FD4007985006D5F0F222C398FD97
:0501E6000FD5F0EA2234
:100284000200BAE493A3F8E493A34003F68001F2D6
:1002940008DFF48029E493A3F85407240CC8C3337B
:1002A400C4540F4420C8834004F456800146F6DF4A
:1002B400E4800B0102040810204080900541E47E94
:1002C400019360BCA3FF543F30E509541FFEE4933F
:1002D400A360010ECF54C025E060A840B8E493A306
:1002E400FAE493A3F8E493A3C8C582C8CAC583CA31
:1002F400F0A3C8C582C8CAC583CADFE9DEE780BEE9
:01054A0000B0
:00000001FF
