:09039400434F4C434B3A003A0080
:09037600011A37011C3B011B17A1
:10012E001203427BFF7A0379947D017F011202B59F
:10013E00120313E51BFB7A00750C027D017F021280
:10014E0002F67BFF7A03799B7D037F021202B5E5EF
:10015E001CFB7A00750C027D047F021202F67BFFF7
:10016E007A03799B7D067F021202B5E51AFB7A00AF
:0C017E00750C027D077F021202F680B7AC
:03000B0002018A65
:04018A00C0E0C0D041
:10018E00758A66758CFC0519E51970020518C394FD
:10019E00E8E5189403402D751800751900051AE549
:1001AE001A943C401F751A00051CE51C943C401423
:1001BE00751C00051BE51B94184009751B00751A6C
:0401CE0000751C009C
:0501D200D0D0D0E032A6
:10035600AE071FEE600A7E027DC7DDFEDEFC80F082
:010366002274
:06036700C2A58F80D2A7A1
:08036D007F027EEFDEFEDFFCE3
:010375002265
:0A038000C2A6120367C2A702036DB4
:1002D800CFCDCFCECCCE12004D7C007D0A12004D82
:0402E800ED2430FFD2
:0A02EC00D2A6120367C2A702036D39
:10032C00AE07BE0104ED148006BE0209ED243F4465
:06033C0080FF1203802285
:100342007F381203807F0C1203807F061203807FA6
:040352000102038021
:0A038A00AC0312032CAF040202ECD6
:0602B5008B088A09890A8A
:1002BB0012032CE4FDAB08AA09A90A8D82758300F1
:0C02CB0012000EFF60061202EC0D80E92C
:0102D7002204
:0C0282007F0AEA24FFFDE434FFFC7E004C
:08028E008E0D8F0E8C0F8D10F8
:100296007F017E00E4FBEBC39510E50F6480F874E4
:0E02A6008098500AAC0DAD0E12003B0B80E8A4
:0102B4002227
:0402F6008A0A8B0BDA
:1002FA0012032CAA0CEAD39400400D120282AC0A13
:08030A00AD0B1202D81A80EDC0
:0103120022C8
:1001D70012032CC3EA64809480400B7F2B1202EC3D
:1001E7008A168B17800E7F2D1202ECC3E49BF5173E
:1001F700E49AF516AA15EAD39400400D120282ACD0
:0902070016AD171202D81A80EDA1
:0102100022CB
:040211008A1F8B2095
:1002150012032CAA21EAD3940040297F10120284EC
:10022500AC1FAD20CFCDCFCECCCE12004DEF540FAD
:10023500FEC3940AEE5004243080022437FF1202D4
:04024500EC1A80D15E
:010249002292
:04024A008A248B2552
:10024E0012032CAA26EAD394004028EA24FFFDE4E8
:10025E0034FFFC7F027E0012028EAC24AD25CFCD82
:10026E00CFCECCCE12004DEF54012430FF1202EC53
:03027E001A80D211
:01028100225A
:100313005389F0438901758A66758CFCC28DD28C32
:09032300D28DD2A9D2AFC2B922D9
:030000000200A259
:0C00A200787FE4F6D8FD7581260200E9A5
:10000E00BB010CE58229F582E5833AF583E02250A7
:10001E0006E92582F8E622BBFE06E92582F8E222F1
:0D002E00E58229F582E5833AF583E493220B
:10003B00EF8DF0A4A8F0CF8CF0A428CE8DF0A42ED9
:02004B00FE2293
:10004D00BC000BBE0029EF8DF084FFADF022E4CC97
:10005D00F875F008EF2FFFEE33FEEC33FCEE9DEC60
:10006D00984005FCEE9DFE0FD5F0E9E4CEFD22EDA6
:10007D00F8F5F0EE8420D21CFEADF075F008EF2FF0
:10008D00FFED33FD4007985006D5F0F222C398FDE1
:05009D000FD5F0EA227E
:1000AE0002012EE493A3F8E493A34003F68001F239
:1000BE0008DFF48029E493A3F85407240CC8C33353
:1000CE00C4540F4420C8834004F456800146F6DF22
:1000DE00E4800B0102040810204080900376E47E39
:1000EE00019360BCA3FF543F30E509541FFEE49317
:1000FE00A360010ECF54C025E060A840B8E493A3DE
:10010E00FAE493A3F8E493A3C8C582C8CAC583CA08
:10011E00F0A3C8C582C8CAC583CADFE9DEE780BEC0
:01037F00007D
:00000001FF
