:100394005772697465204F4B0020202020202020B4
:0A03A400200052656164204F4B00F9
:100003001203C4750C05AB23AA227D017F011203E1
:100013007712016B8F24E524B401150523E52370C2
:10002300020522750C05FBAA227D017F01120377CD
:10003300E524B40216E523152370021522750C0579
:10004300AB23AA227D017F01120377E524640370A9
:100053003AFCAD23FF1202F47F051203D8E522FD1B
:100063007C007F011202F47F051203D87BFF7A0321
:1000730079947D017F021203187FE81203D87BFF76
:100083007A03799D7D017F02120318E524640470CD
:1000930080FF12029B7522008F237F0112029BEFC8
:1000A300FEEE4222750C05AB23AA227D017F0112CD
:1000B30003777BFF7A0379A67D017F021203187F02
:1000C300E81203D87BFF7A03799D7D017F02120337
:0400D30018020014FB
:1003D800AE071FEE600A7E027DC7DDFEDEFC80F000
:0103E80022F2
:0603E900C2A58F80D2A71F
:0803EF007F027EEFDEFEDFFC61
:0103F70022E3
:0A041000C2A61203E9C2A70203EF1F
:10033B00CFCDCFCECCCE1201167C007D0A1201168A
:04034B00ED2430FF6E
:0A034F00D2A61203E9C2A70203EFD1
:1003AE00AE07BE0104ED148006BE0209ED243F44E3
:0603BE0080FF1204102272
:1003C4007F381204107F0C1204107F061204107F71
:0403D400010204100E
:0A041A00AC031203AEAF0402034F5F
:060318008B088A09890A26
:10031E001203AEE4FDAB08AA09A90A8D827583000B
:0C032E001200D7FF600612034F0D80E99B
:01033A0022A0
:0C0268007F0AEA24FFFDE434FFFC7E0066
:080274008E0D8F0E8C0F8D1012
:10027C007F017E00E4FBEBC39510E50F6480F874FE
:0E028C008098500AAC0DAD0E1201040B80E8F4
:01029A002241
:040377008A0A8B0B58
:10037B001203AEAA0CEAD39400400D120268AC0A29
:08038B00AD0B12033B1A80EDDB
:010393002247
:1001BD001203AEC3EA64809480400B7F2B12034F71
:1001CD008A168B17800E7F2D12034FC3E49BF517F4
:1001DD00E49AF516AA15EAD39400400D120268AC04
:0901ED0016AD1712033B1A80ED58
:0101F60022E6
:0401F7008A1A8B1BBA
:1001FB001203AEAA1CEAD3940040297F1012026AA4
:10020B00AC1AAD1BCFCDCFCECCCE120116EF540F07
:10021B00FEC3940AEE5004243080022437FF1203ED
:04022B004F1A80D115
:01022F0022AC
:040230008A1F8B2076
:100234001203AEAA21EAD394004028EA24FFFDE485
:1002440034FFFC7F027E00120274AC1FAD20CFCDC0
:10025400CFCECCCE120116EF54012430FF12034F3F
:030264001A80D22B
:010267002274
:10016B00E4F50820B1107F141203D830B1FD7F14D1
:10017B001203D875080120B0107F141203D830B0C9
:10018B00FD7F141203D875080220B2107F141203DE
:10019B00D830B2FD7F141203D875080320B3107F3B
:1001AB00141203D830B3FD7F141203D8750804AFB3
:0101BB00083B
:0101BC002220
:1002F4008F088C098D0A12042E7FA01202CB1203E0
:10030400F8AF081202CB1203F8AF0A1202CB1203A1
:04031400F8020437B0
:02029B008F08CA
:10029D0012042E7FA01202CB1203F8AF081202CB6C
:1002AD001203F812042E7FA11202CB1203F81203CF
:0D02BD00598F097F01120424120437AF0984
:0102CA002211
:09042E00D2A0D2A1C2A0C2A122F9
:07043700C2A0D2A1D2A02255
:0202CB00AD077D
:1002CD00E4FB74807E00A803088006CEA2E713CE5F
:1002DD0013D8F8FFEDF582EF558224FF92A0D2A13D
:0602ED00C2A10BBB08DCFE
:0102F30022E8
:10035900E4FFD2A0FED2A130A00D7480A8060880C7
:0D03690002C313D8FC4207C2A10EBE08E873
:010376002264
:0A042400EF24FF92A0D2A1C2A12292
:0B03F800D2A0D2A1A2A0E433FFC2A15A
:0104030022D6
:03000000020404F3
:0C040400787FE4F6D8FD75812502000326
:1000D700BB010CE58229F582E5833AF583E02250DE
:1000E70006E92582F8E622BBFE06E92582F8E22228
:0D00F700E58229F582E5833AF583E4932242
:10010400EF8DF0A4A8F0CF8CF0A428CE8DF0A42E0F
:02011400FE22C9
:10011600BC000BBE0029EF8DF084FFADF022E4CCCD
:10012600F875F008EF2FFFEE33FEEC33FCEE9DEC96
:10013600984005FCEE9DFE0FD5F0E9E4CEFD22EDDC
:10014600F8F5F0EE8420D21CFEADF075F008EF2F26
:10015600FFED33FD4007985006D5F0F222C398FD17
:050166000FD5F0EA22B4
:00000001FF
