:05031A0012028B80FEC1
:10029F00AE071FEE600A7E027DECDDFEDEFC80F015
:0102AF00222C
:0602C000C2A58F80D2A749
:0802C6007F027EEFDEFEDFFC8B
:0102CE00220D
:0A02F100C2A61202C0C2A70202C694
:10023A00CFCDCFCECCCE1200E47C007D0A1200E4F2
:04024A00ED2430FF70
:0A024E00D2A61202C0C2A70202C627
:10027500AE07BE0104ED148006BE0209ED243F441D
:0602850080FF1202F122CD
:10028B007F381202F17F0C1202F17F061202F17F0E
:04029B00010202F169
:0A02FB00AC03120275AF0402024EBC
:060217008B2E8A2F8930B6
:10021D00120275E4FDAB2EAA2FA9308D82758300D5
:0C022D001200A5FF600612024E0D80E9D1
:0102390022A2
:0C01E4007F0AEA24FFFDE434FFFC7E00EB
:0801F0008E2A8F2B8C2C8D2D23
:1001F8007F017E00E4FBEBC3952DE52C6480F87449
:0E0208008098500AAC2AAD2B1200D20B80E871
:0102160022C5
:040258008A1D8B1E52
:10025C00120275AA1FEAD39400400D1201E4AC1DE2
:08026C00AD1E12023A1A80EDEA
:010274002267
:10013900120275C3EA64809480400B7F2B12024E31
:100149008A198B1A800E7F2D12024EC3E49BF51A71
:10015900E49AF519AA18EAD39400400D1201E4AC07
:0901690019AD1A12023A1A80EDD8
:01017200226A
:040173008A228B232E
:10017700120275AA24EAD3940040297F101201E6DF
:10018700AC22AD23CFCDCFCECCCE1200E4EF540FAF
:10019700FEC3940AEE5004243080022437FF120273
:0401A7004E1A80D19B
:0101AB002231
:0401AC008A278B28EB
:1001B000120275AA29EAD394004028EA24FFFDE43C
:1001C00034FFFC7F027E001201F0AC27AD28CFCDBA
:1001D000CFCECCCE1200E4EF54012430FF12024EF9
:0301E0001A80D2B0
:0101E30022F9
:0B02DB00D288C289D2A8D2AFD2B822CC
:1002B0005389F0438901E4F58AF58CC28DC28C2202
:0B02E600AD07AC068C8CAF058F8A22A0
:09030500AF8CEFFEAD8AEDFF2282
:06030E00EF24FF928C2297
:060314001202B00202DB40
:03000300020006F2
:10000600C0E0C0F0C083C082C0D075D000C000C0C0
:1000160001C002C003C004C005C006C007E50870E1
:100026000CFFFE1202E67F0112030E8054E50864FF
:1000360001704E1203058E098F0AE4FFFE1202E6D6
:10004600C3E50A9464E50994004013D3E50A94B025
:10005600E5099436500875A0007508028026C3E5A8
:100066000A94FEE5099429401BD3E50A94E6E509BE
:10007600942D5010750D01E4FF12030E75080080D3
:1000860003750801D007D006D005D004D003D002EE
:0F009600D001D000D0D0D082D083D0F0D0E032D3
:030000000202CF2A
:0C02CF00787FE4F6D8FD75813002031A38
:1000A500BB010CE58229F582E5833AF583E0225010
:1000B50006E92582F8E622BBFE06E92582F8E2225A
:0D00C500E58229F582E5833AF583E4932274
:1000D200EF8DF0A4A8F0CF8CF0A428CE8DF0A42E42
:0200E200FE22FC
:1000E400BC000BBE0029EF8DF084FFADF022E4CC00
:1000F400F875F008EF2FFFEE33FEEC33FCEE9DECC9
:10010400984005FCEE9DFE0FD5F0E9E4CEFD22ED0E
:10011400F8F5F0EE8420D21CFEADF075F008EF2F58
:10012400FFED33FD4007985006D5F0F222C398FD49
:050134000FD5F0EA22E6
:00000001FF
