:10048A0050617373576F72640020204F4B210045EF
:05049A0052524F520018
:0804EB00021A000002180000D3
:10014D001204B47BFF7A04798A7D017F01120416B3
:10015D001200038F1CE51C60F7D3940A5041C3E5D0
:10016D00199404E51894005028AE1AAF1B7C007D3D
:10017D000A1202458E1A8F1BE51C75F00A84E5F0F4
:10018D00251BF51BE4351AF51A0519E5197002053D
:10019D0018750C04AB1BAA1A7D017F02120457E5DA
:1001AD001C640B7036E51BB4D20DE51AB404087B44
:1001BD00FF7A04799380067BFF7A0479997D0C7F11
:1001CD0001120416E4F51AF51BF518F519750C0452
:1001DD00AB1BAA1A7D017F02120457E51C640C604B
:1001ED000302015DAE1AAF1BFC7D0A1202578E1A77
:1001FD008F1BE519151970021518750C04AB1BAA88
:0B020D001A7D017F0212045702015D00
:06049F00AE071FEE600E27
:0C04A500750902750AEFD50AFDD509FAA9
:0304B10080EC22BA
:0604C800C2A58F80D2A73F
:0804CE007F027EEFDEFEDFFC81
:0104D6002203
:0A04D700C2A61204C8C2A70204CE98
:10043900CFCDCFCECCCE1202577C007D0A12025707
:04044900ED2430FF6F
:0A044D00D2A61204C8C2A70204CE12
:10047400AE07BE0104ED148006BE0209ED243F441C
:0604840080FF1204D722E4
:1004B4007F381204D77F0C1204D77F061204D77F2B
:0404C400010204D756
:0A04E100AC03120474AF0402044DD2
:060416008B088A09890A27
:10041C00120474E4FDAB08AA09A90A8D8275830045
:0C042C00120218FF600612044D0D80E95A
:0104380022A1
:0C03E3007F0AEA24FFFDE434FFFC7E00EA
:0803EF008E0D8F0E8C0F8D1096
:1003F7007F017E00E4FBEBC39510E50F6480F87482
:0E0407008098500AAC0DAD0E1202450B80E835
:0104150022C4
:040457008A0A8B0B77
:10045B00120474AA0CEAD39400400D1203E3AC0A05
:08046B00AD0B1204391A80EDFB
:010473002266
:10033800120474C3EA64809480400B7F2B12044D2E
:100348008A168B17800E7F2D12044DC3E49BF51778
:10035800E49AF516AA15EAD39400400D1203E3AC0B
:0903680016AD171204391A80EDDC
:010371002269
:040372008A1F8B2033
:10037600120474AA21EAD3940040297F101203E5DF
:10038600AC1FAD20CFCDCFCECCCE120257EF540F3F
:10039600FEC3940AEE5004243080022437FF120470
:0403A6004D1A80D19B
:0103AA002230
:0403AB008A248B25F0
:1003AF00120474AA26EAD394004028EA24FFFDE43D
:1003BF0034FFFC7F027E001203EFAC24AD25CFCDBE
:1003CF00CFCECCCE120257EF54012430FF12044D82
:0303DF001A80D2AF
:0103E20022F8
:10000300E4F5087590FFC2972093107FC812049FF0
:100013003093FD7FC812049F7508012092107FC89A
:1000230012049F3093FD7FC812049F75080220912C
:10003300107FC812049F3093FD7FC812049F750878
:10004300032090107FC812049F3093FD7FC81204D1
:100053009F7508047590FFC2962093107FC8120401
:100063009F3093FD7FC812049F7508052092107F6F
:10007300C812049F3092FD7FC812049F75080620A2
:1000830091107FC812049F3091FD7FC812049F75A1
:1000930008072090107FC812049F3090FD7FC8127C
:1000A300049F7508087590FFC2952093107FC812AE
:1000B300049F3093FD7FC812049F75080920921096
:1000C3007FC812049F3092FD7FC812049F75080AEF
:1000D3002091107FC812049F3091FD7FC812049FA6
:1000E30075080B2090107FC812049F3090FD7FC8C5
:1000F30012049F75080C7590FFC2942093107FC85B
:1001030012049F3093FD7FC812049F75080D20923F
:10011300107FC812049F3092FD7FC812049F750898
:100123000E2091107FC812049F3091FD7FC81204E6
:100133009F75080F2090107FC812049F3090FD7F99
:09014300C812049F750810AF08F2
:01014C002290
:030000000202AC4D
:0C02AC00787FE4F6D8FD7581260202F38D
:10021800BB010CE58229F582E5833AF583E022509B
:1002280006E92582F8E622BBFE06E92582F8E222E5
:0D023800E58229F582E5833AF583E49322FF
:10024500EF8DF0A4A8F0CF8CF0A428CE8DF0A42ECD
:02025500FE2287
:10025700BC000BBE0029EF8DF084FFADF022E4CC8B
:10026700F875F008EF2FFFEE33FEEC33FCEE9DEC54
:10027700984005FCEE9DFE0FD5F0E9E4CEFD22ED9A
:10028700F8F5F0EE8420D21CFEADF075F008EF2FE4
:10029700FFED33FD4007985006D5F0F222C398FDD5
:0502A7000FD5F0EA2272
:1002B80002014DE493A3F8E493A34003F68001F20E
:1002C80008DFF48029E493A3F85407240CC8C33347
:1002D800C4540F4420C8834004F456800146F6DF16
:1002E800E4800B01020408102040809004EBE47EB7
:1002F800019360BCA3FF543F30E509541FFEE4930B
:10030800A360010ECF54C025E060A840B8E493A3D1
:10031800FAE493A3F8E493A3C8C582C8CAC583CAFC
:10032800F0A3C8C582C8CAC583CADFE9DEE780BEB4
:0104F3000008
:00000001FF
