:1009510020200020202D20202D0020203A20203A88
:010961000095
:1005D5001204BCE518FB3395E0FA750C027D017F2A
:1005E500011208DCE519FB3395E0FA750C027D0470
:1005F5007F011208DCE51AFB3395E0FA750C027DE4
:10060500077F011208DCE51BFB3395E0FA750C0248
:100615007D017F021208DCE51CFB3395E0FA750CC1
:10062500027D047F021208DCE51DFB3395E0FA75B7
:090635000C027D077F020208DCC3
:10000E00E524B4020B0521E52175F0068485F02167
:10001E00E524640360030200FB74182521F806D35F
:10002E00E518648094E34003E4F518D3E519648081
:10003E00948C4003751901E51964016023E5196478
:10004E0003601DE51964056017E51964076011E585
:10005E00196408600BE519640A6005E519B40C0B08
:10006E00D3E51A6480949F4060805BE51964036059
:10007E0017E51964046011E5196406600BE519644F
:10008E00096005E519B40B0BD3E51A6480949E4004
:10009E00388033E519B40231E51875F00412040600
:1000AE00AFF0EF7018E51875F064120406AFF0EFBC
:1000BE00600BD3E51A6480949D400E8009D3E51A37
:1000CE006480949C4003751A01D3E51B6480949759
:1000DE004003E4F51BD3E51C648094BB4003E4F5B8
:1000EE001CD3E51D648094BB4003E4F51DE5246438
:1000FE0004600302020D74182521F816C3E5186476
:10010E008094805003751863C3E519648094815000
:10011E000375190CE51964016023E5196403601D6C
:10012E00E51964056017E51964076011E51964089F
:10013E00600BE519640A6005E519B40C1BC3E51ADA
:10014E00648094815003751A1FD3E51A6480949FBE
:10015E0050030201E90201E6E51964036017E5198F
:10016E0064046011E5196406600BE5196409600505
:10017E00E519B40B17C3E51A648094815003751A00
:10018E001ED3E51A6480949E4051804CE51964029A
:10019E007049E51875F004120406AFF0EF7024E50F
:1001AE001875F064120406AFF0EF6017C3E51A6419
:1001BE008094815003751A1DD3E51A6480949D4076
:1001CE001A8015C3E51A648094815003751A1CD3E6
:1001DE00E51A6480949C4003751A01C3E51B648084
:1001EE0094805003751B17C3E51C648094805003E4
:1001FE00751C3BC3E51D648094805003751D3BE563
:10020E00217014E523B4010F7BFF7A0979517D012A
:10021E007F0112089B8011E518FB3395E0FA750CEF
:10022E00027D017F011208DCE521B40114E523B43F
:10023E00010F7BFF7A0979517D047F0112089B80A3
:10024E0011E519FB3395E0FA750C027D047F01125E
:10025E0008DCE521B40214E523B4010F7BFF7A0913
:10026E0079517D077F0112089B8011E51AFB3395AA
:10027E00E0FA750C027D077F011208DCE521B4035C
:10028E0014E523B4010F7BFF7A0979517D017F02BA
:10029E0012089B8011E51BFB3395E0FA750C027D6D
:1002AE00017F021208DCE521B40414E523B4010F2A
:1002BE007BFF7A0979517D047F0212089B8011E53C
:1002CE001CFB3395E0FA750C027D047F021208DCEC
:1002DE00E521B40514E523B4010F7BFF7A097951AA
:1002EE007D077F0212089B8011E51DFB3395E0FA16
:1002FE00750C027D077F021208DCE521FB7A007582
:10030E000C027D0A7F021208DCE523FB7A00750CD5
:08031E00027D0D7F020208DCE4
:10063E0012093D1200031208F97BFF7A0979547DE5
:10064E00017F0112089B7BFF7A09795B7D017F0296
:10065E0012089B1203261206968F24E524B4011667
:10066E00E5227007752201F521800BE522B4010603
:10067E00E4F522120326E5221460080470D8120550
:08068E00D580D312000E80CECE
:03000B000207BE2B
:0907BE00C0E0C0D075D000C007F6
:1007C700758A66758CFC0520E5207002051FC394A9
:1007D700F4E51F94014012751F00752000E5237092
:0907E700047F0180027F008F23D2
:0707F000D007D0D0D0E032A9
:06096200C2A58F80D2A7A0
:080968007F027EEFDEFEDFFCE2
:010970002264
:0A097100C2A6120962C2A7020968BB
:1008BE00CFCDCFCECCCE1204677C007D0A1204675A
:0408CE00ED2430FFE6
:0A08D200D2A6120962C2A70209684B
:10091200AE07BE0104ED148006BE0209ED243F4479
:0609220080FF12097122A2
:10093D007F381209717F0C1209717F061209717FC0
:04094D000102097129
:0A097B00AC03120912AF040208D207
:06089B008B088A09890A9E
:1008A100120912E4FDAB08AA09A90A8D8275830019
:0C08B100120428FF60061208D20D80E936
:0108BD002218
:0C0868007F0AEA24FFFDE434FFFC7E0060
:080874008E0D8F0E8C0F8D100C
:10087C007F017E00E4FBEBC39510E50F6480F874F8
:0E088C008098500AAC0DAD0E1204550B80E89A
:01089A00223B
:0408DC008A0A8B0BEE
:1008E000120912AA0CEAD39400400D120868AC0A4F
:0808F000AD0B1208BE1A80EDE9
:0108F80022DD
:10078400120912C3EA64809480400B7F2B1208D2B2
:100794008A168B17800E7F2D1208D2C3E49BF5179F
:1007A400E49AF516AA15EAD39400400D120868AC31
:0907B40016AD171208BE1A80ED03
:0107BD002219
:0407F7008A278B289A
:1007FB00120912AA29EAD3940040297F1012086A21
:10080B00AC27AD28CFCDCFCECCCE120467EF540F93
:10081B00FEC3940AEE5004243080022437FF1208E2
:04082B00D21A80D18C
:01082F0022A6
:040830008A2C8B2D56
:10083400120912AA2EEAD394004028EA24FFFDE408
:1008440034FFFC7F027E00120874AC2CAD2DCFCD9A
:10085400CFCECCCE120467EF54012430FF1208D25D
:030864001A80D225
:01086700226E
:090985000718160A0C10053703CF
:05000300C2B5C2B622E7
:0206E800A90760
:1006EA00D2B5E4FB74017E00A803088005C333CEAB
:1006FA0033CED8F9FFE9F582EF558224FF92B4D2BE
:10070A00B6C2B60BBB08DDE4FB74017E00A8030881
:10071A008005C333CE33CED8F9FFEDF582EF55828B
:0E072A0024FF92B4D2B6C2B60BBB08DDC2B536
:01073800229E
:02073900A9070E
:10073B00E4FDD2B5FB74017E00A803088005C3332A
:10074B00CE33CED8F9FFE9F582EF558224FF92B470
:10075B00C2B6D2B60BBB08DDE4FBD2B6C2B630B420
:10076B000D7401A803088002C333D8FC42050BBBF0
:08077B0008E8C2B5C2B4AF05E5
:010783002253
:10032600E4FD7F8E1206E8E51E75F00A120406C487
:1003360054F0FFE51E75F00A120406AEF0EF2EFD2E
:100346007F8A1206E8E51D75F00A120406C454F009
:10035600FFE51D75F00A120406AEF0EF2EFD7F8054
:100366001206E8E51C75F00A120406C454F0FFE50F
:100376001C75F00A120406AEF0EF2EFD7F821206FF
:10038600E8E51B75F00A120406C454F0FFE51B7578
:10039600F00A120406AEF0EF2EFD7F841206E8E5A1
:1003A6001A75F00A120406C454F0FFE51A75F00A2D
:1003B600120406AEF0EF2EFD7F861206E8E51975EB
:1003C600F00A120406C454F0FFE51975F00A120487
:1003D60006AEF0EF2EFD7F881206E8E51875F00AE6
:1003E600120406C454F0FFE51875F00A120406AEAE
:1003F600F0EF2EFD7F8C1206E87D807F8E0206E8E8
:1004BC007F8D120739EFC4540F75F00AA4FEEF5468
:1004CC000F2EF5187F89120739EFC4540F75F00AF7
:1004DC00A4FEEF540F2EF5197F87120739EFC45481
:1004EC000F75F00AA4FEEF540F2EF51A7F85120734
:1004FC0039EFC4540F75F00AA4FEEF540F2EF51B00
:10050C007F83120739EFC4540F75F00AA4FEEF5421
:10051C000F2EF51C7F81120739EFC4540F75F00AAA
:10052C00A4FEEF540F2EF51D7F8B120739EFC45428
:0C053C000F75F00AA4FEEF540F2EF51E00
:010548002290
:06092800AE071FEE600E99
:0C092E00750902750AEFD50AFDD509FA1B
:03093A0080EC222C
:10069600E4F50820B1107F1412092830B1FD7F144B
:1006A60012092875080120B0107F1412092830B0ED
:1006B600FD7F1412092875080220B2107F14120952
:1006C6002830B2FD7F1412092875080320B3107F65
:1006D6001412092830B3FD7F14120928750804AFD7
:0106E600080B
:0106E70022F0
:1008F9005389F0438901758A66758CFCC28DD28C47
:09090900D28DD2A9D2AFC2B922ED
:03000000020549AD
:0C054900787FE4F6D8FD75812E02059045
:10040600C2D530F707B2D563F0FF05F030E70CB27E
:10041600D5F4048463F0FF05F080018430D502F43E
:020426000422AE
:10042800BB010CE58229F582E5833AF583E0225089
:1004380006E92582F8E622BBFE06E92582F8E222D3
:0D044800E58229F582E5833AF583E49322ED
:10045500EF8DF0A4A8F0CF8CF0A428CE8DF0A42EBB
:02046500FE2275
:10046700BC000BBE0029EF8DF084FFADF022E4CC79
:10047700F875F008EF2FFFEE33FEEC33FCEE9DEC42
:10048700984005FCEE9DFE0FD5F0E9E4CEFD22ED88
:10049700F8F5F0EE8420D21CFEADF075F008EF2FD2
:1004A700FFED33FD4007985006D5F0F222C398FDC3
:0504B7000FD5F0EA2260
:1005550002063EE493A3F8E493A34003F68001F278
:1005650008DFF48029E493A3F85407240CC8C333A7
:10057500C4540F4420C8834004F456800146F6DF76
:10058500E4800B0102040810204080900985E47E78
:10059500019360BCA3FF543F30E509541FFEE4936B
:1005A500A360010ECF54C025E060A840B8E493A332
:1005B500FAE493A3F8E493A3C8C582C8CAC583CA5D
:1005C500F0A3C8C582C8CAC583CADFE9DEE780BE15
:01098E000068
:00000001FF
