:10000E001203911203F98F2EE52EB4010CE52D701B
:10001E00047F0180027F008F2DE52EB40207E4F5E8
:10002E002BF52AF52CE52E6403702DE52BFD7C00B7
:10003E00E4FF1203137F051203C0E52AFD7C007F47
:10004E00011203137F051203C0E52CFD7C007F0215
:10005E001203137F051203C0E52EB40415E4FF123C
:10006E0002938F2B7F011202938F2A7F021202932B
:10007E008F2CE52B75F00A84FD7F08120003E52B0B
:10008E0075F00A84ADF07F071200037D0B7F061218
:10009E000003E52A75F00A84FD7F05120003E52AA8
:1000AE0075F00A84ADF07F041200037D0B7F0312FE
:1000BE000003E52C75F00A84FD7F02120003E52C87
:0E00CE0075F00A84ADF07F01120003020011EC
:1002EC00E52D6022052CE52CC394644019E4F52C13
:1002FC00052AE52A943C400EE4F52A052BE52B94BF
:07030C003C4003E4F52B2245
:03000B000200DC14
:1000DC00C0E0C0F0C083C082C0D075D000C000C0EA
:0D00EC0001C002C003C004C005C006C0076B
:1000F900758A66758CFC0525E52570020524C3946F
:1001090014E5249400400975240075250012025A4B
:100119000527E52770020526C39402E526940040C9
:10012900097526007527001203780529E52970024B
:100139000528C3940AE52894004009752800752903
:04014900001202ECB2
:10014D00D007D006D005D004D003D002D001D00006
:0B015D00D0D0D082D083D0F0D0E032B0
:1003C000AE071FEE600A7E027DC7DDFEDEFC80F018
:0103D000220A
:10033700091B000A0A0A0A0A0A0A0A12093F065B87
:100347004F666D7D077F6F0040777C395E7971015D
:0203570008019B
:07000300741B2FF8A6052273
:1001F400E4F580EF14B40800505490020C75F00339
:10020400A4C58325F0C583730202240202280202D6
:100214002C02023002023402023C02024402024C6A
:10022400C2A4800EC2A48012C2A48016C2A4801AE2
:10023400D2A4C2A3C2A28016D2A4C2A3D2A2800E08
:10024400D2A4D2A3C2A28006D2A4D2A3D2A27409F9
:060254002DF8E6F5802202
:10037800741B2508F8E6FDAF081201F40508E50826
:08038800C3940940037508014C
:01039000224A
:100313008F328C338D341203E77FA01202C3120392
:10032300D1AF321202C31203D1AF341202C312038C
:04033300D10203F000
:020293008F32A8
:100295001203E77FA01202C31203D1AF321202C3C9
:1002A5001203D11203E77FA11202C31203D1120375
:0D02B5005A8F337F011203DD1203F0AF33C7
:0102C2002219
:0903E700D2A0D2A1C2A0C2A12241
:0903F000C2A0D2A1D2A0C2A12238
:0202C300AD0785
:1002C500E4FB74807E00A803088006CEA2E713CE67
:1002D50013D8F8FFEDF582EF558224FF92A0D2A145
:0602E500C2A10BBB08DC06
:0102EB0022F0
:10035A00E4FFD2A0FED2A130A00D7480A8060880C6
:0D036A0002C313D8FC4207C2A10EBE08E872
:010377002263
:0A03DD00EF24FF92A0D2A1C2A122DA
:0B03D100D2A0D2A1A2A0E433FFC2A181
:0103DC0022FE
:0503F900AF31E4F53115
:0103FE0022DC
:1003AA00E4FF20B1010F20B0027F0220B2027F03D6
:0503BA0020B3027F04E6
:0103BF00221B
:10025A00852F301203AA8F2FE530B40107E52F70DE
:10026A0003753101E530B40207E52F7003753102D9
:10027A00E530B40307E52F7003753103E530B404A4
:08028A0007E52F700375310434
:010292002249
:100391005389F0438901758A66758CFCC28DD28CB4
:0903A100D28DD2A9D2AFC2B9225B
:0300000002016892
:0C016800787FE4F6D8FD7581340201AF09
:1001740002000EE493A3F8E493A34003F68001F293
:1001840008DFF48029E493A3F85407240CC8C3338C
:10019400C4540F4420C8834004F456800146F6DF5B
:1001A400E4800B0102040810204080900337E47EB1
:1001B400019360BCA3FF543F30E509541FFEE49350
:1001C400A360010ECF54C025E060A840B8E493A317
:1001D400FAE493A3F8E493A3C8C582C8CAC583CA42
:1001E400F0A3C8C582C8CAC583CADFE9DEE780BEFA
:0103590000A3
:00000001FF
