:05001E0012000380FE4A
:03002300020026B2
:10002600C0E0C0F0C083C082C0D075D000C000C0A0
:1000360001C002C003C004C005C006C00730980C4A
:10004600E599F4F5A0AF991200A1C298D007D006A1
:10005600D005D004D003D002D001D000D0D0D082B9
:07006600D083D0F0D0E0329E
:10008400AE071FEE600A7E027DC7DDFEDEFC80F057
:010094002249
:10006D0053877F75985053890F438920758BFA7587
:07007D008DFAC2ABD28E2206
:1000030075985053877F53890F438920758BFA75F1
:0B0013008DFAC2ABD28ED2ACD2AF226D
:0800A1008F993099FDC29922EC
:0300000002009566
:0C009500787FE4F6D8FD75810702001E9C
:00000001FF
